:020000040800F2
:1000000038090020C10100084F040008110400084D
:100010004D040008B9020008EF09000800000000C4
:100020000000000000000000000000007104000853
:10003000BB02000800000000510400084909000844
:10004000DB010008DB010008DB010008DB01000820
:10005000DB010008DB010008DB010008DB01000810
:10006000DB010008DB010008DB010008DB01000800
:10007000DB010008DB010008DB010008DB010008F0
:10008000DB010008DB010008DB010008DB010008E0
:10009000DB010008DB010008DB010008DB010008D0
:1000A000DB010008DB010008DB010008DB010008C0
:1000B000DB0100089D090008DB010008DB010008E6
:1000C000DB010008DB010008DB010008DB010008A0
:1000D000DB010008DB010008DB010008DB01000890
:1000E000DB010008DB010008DB01000800F002F87A
:1000F00000F03CF80AA090E8000C82448344AAF186
:100100000107DA4501D100F031F8AFF2090EBAE883
:100110000F0013F0010F18BFFB1A43F0010318473B
:10012000EC0900000C0A0000103A24BF78C878C11E
:10013000FAD8520724BF30C830C144BF04680C60ED
:10014000704700000023002400250026103A28BF35
:1001500078C1FBD8520728BF30C148BF0B60704739
:100160001FB500F062F81FBD10B510BD00F069F8B2
:100170001146FFF7F5FF00F09FFC00F087F803B48D
:10018000FFF7F2FF03BC00F091F800000B49D1F833
:1001900000C04A685CF8043B1068184442F8040B3D
:1001A0008C4528BFA1F1DC0C8A4228BFA1F1DC02FA
:1001B000C1F800C04A6020F000407047CC02002027
:1001C0000948804709480047FEE7FEE7FEE7FEE7EB
:1001D000FEE7FEE7FEE7FEE7FEE7FEE70448054927
:1001E000054A064B704700004D090008ED00000865
:1001F0003803002038090020380500203805002089
:100200000B4910B5A1F17C020A4CC2E93712372123
:1002100006E000EB104342F82130074B00FB03409F
:100220000B1EA1F10101F4DC10BD0120E8E7000084
:100230006C020020E119D666CD0D010070477047B1
:100240007047754600F02CF8AE46050069465346E7
:1002500020F00700854618B020B5FFF7BFFFBDE8C6
:1002600020404FF000064FF000074FF000084FF01D
:10027000000B21F00701AC46ACE8C009ACE8C009AE
:10028000ACE8C009ACE8C0098D46704710B504461B
:10029000AFF300802046BDE81040FFF770BF0000BC
:1002A00000487047D4020020704700000149182020
:1002B000ABBEFEE726000200FEE770472DE9F047DF
:1002C0000025DFF88CA0234E00274FF00108C6F868
:1002D000A471052000F0C4FBC6F8A871052000F049
:1002E000BFFB0F240AEB051919F8040010B101280F
:1002F00003D004E0C6F8A08101E0C6F8A071C6F8FA
:10030000A481052000F0ACFBC6F8A471052000F024
:10031000A7FB641E002CE7DAC6F8A881052000F0D0
:100320009FFBC6F8A871052000F09AFB284600F054
:10033000CDFB052000F094FBC6F89C714FF448708B
:1003400000F08EFB6D1C102DC1DBBDE8F0870000B6
:100350001C000020000021422DE9F0410022CC7851
:1003600004F00F03E40601D58C7823430C784FF09A
:100370000F0714F0FF0F4FF0010C1CD005680CFAAA
:1003800002F40E882640A64211D1960007FA06F81C
:1003900025EA080503FA06F848EA0505CE78282E6E
:1003A00002D0482E02D002E0446100E00461521CF9
:1003B000082AE4D305600A88FF2A1ED9456800226E
:1003C00002F108060CFA06F40E882640A64210D167
:1003D000960007FA06F825EA080503FA06F848EA3F
:1003E0000505CE78282E00D14461CE78482E00D164
:1003F0000461521C082AE3D34560BDE8F08102463F
:10040000002092680A4200D0012070474161704785
:10041000FEE7000038B50121042000F01BF84FF47E
:10042000FF64ADF8004010208DF8030003208DF824
:100430000200054D69462846FFF78EFF21462846F3
:10044000FFF7E4FF38BD000000080140FEE77047F9
:1004500070470000054A002903D09169014391616A
:10046000704791698143916170470000001002401C
:10047000704700F001B800000CB500220192009214
:100480002748016841F4803101604FF4A06301689E
:1004900001F4003100910199491C0191009911B9B1
:1004A00001999942F3D10168890302D50121009194
:1004B00000E000920099012930D11A490A6842F0FF
:1004C00010020A600A6822F003020A600A6842F019
:1004D00002020A604168416041684160416841F43C
:1004E00080614160416821F47C114160416841F4C0
:1004F000E8114160016841F0807101600168890183
:10050000FCD5416821F003014160416841F00201DE
:1005100041604168C1F381010229FAD10CBD00009C
:10052000001002400020024010B50D4B0020588002
:100530000C4A01215888141884F88210401C80B29B
:1005400058800828F6D302F88A1FD173917782F871
:100550002D1002F8111C02F8221C02F8331C10BDE9
:10056000140000201C000020F0B590F86410425CDC
:10057000102A0CD85AB100F132054A5D102A06D86B
:100580002AB1104C90F865206280322314E00120DB
:10059000F0BD465C875CBE4207D187184E5D97F878
:1005A0003270BE4201D10120F0BD521C92B2B2FBAA
:1005B000F3F603FB1622628062889142E9D10020A3
:1005C000F0BD000014000020F0B590F86430144C29
:1005D000C15C2578A94207D100F132016278595CEB
:1005E000914201D10120F0BD90F865106180322266
:1005F00011E0465CAE4207D14618677896F8326043
:10060000BE4201D10120F0BD491C89B2B1FBF2F616
:1006100002FB1611618061888B42EAD10020F0BD97
:100620001400002090F8651000224318405C034934
:1006300093F8323001EB00101A5470471C00002070
:1006400070B506460F24104DFFF7A0FD90FBF4F1A6
:1006500004FB1100401C2870FFF798FD90FBF4F19B
:1006600004FB1100401C68703046FFF7ADFF012805
:10067000EAD006492A78012001EB02116A788854F1
:10068000BDE87040FFF71ABE140000201C000020D7
:100690002DE9F05FDFF89CB002215846FFF7AFFE6E
:1006A0000025254C012801D184F867504FF40069DA
:1006B00049465846FFF7A3FE0226012801D184F8D7
:1006C000676004215846FFF79AFE0127012801D1EF
:1006D00084F867704FF4805A51465846FFF78FFEF2
:1006E0004FF00308012801D184F8678002215846A1
:1006F000FFF785FE104C6934012801D184F867505A
:1007000049465846FFF77BFE012801D184F867600F
:1007100004215846FFF773FE012801D184F8677061
:1007200051465846FFF76BFE012801D184F86780D7
:10073000BDE8F09F000801401C01002010B500F04A
:10074000A9F90D4800F0AAF80B48FFF779FF0DE072
:1007500000240A2000F06AF9FFF79AFFFFF7AEFDC8
:10076000641C142CF5DB044800F038F80248FFF74D
:10077000FBFE0028ECD010BD1C010020002180F8F9
:10078000641080F86510012280F86620072202704C
:1007900000F13203CA540321673041700170704781
:1007A00038B501210420FFF755FE40F60600ADF8EC
:1007B000000048248DF80340074D69462846FFF79E
:1007C000CBFDA914ADF800108DF80340694628460A
:1007D000FFF7C2FD38BD00000008014070B50446B7
:1007E00094F864100A46491C3225B1FBF5F005FB6C
:1007F0001010A15C215494F8642004F13201525C81
:10080000211881F8322094F8672094F86830224E3D
:10081000D31A1B1D3340022B01D084F8682094F8B2
:10082000682032B1012A09D0022A0BD0032A11D143
:100830000DE011F8322F521E0A700BE0215C491EA8
:10084000215407E011F8322F521C0A7002E0215C9B
:10085000491C215484F86400204600F01FF820460B
:10086000FFF7B2FE01280CD02046FFF7DBFE14F89C
:10087000650F401CC0B2B0FBF5F105FB1100207004
:1008800070BD94F86600401C84F866002046BDE800
:100890007040FFF7D5BE00000300008090F86410A0
:1008A00001224318405C034993F8323001EB0010F9
:1008B0001A5470471C00002070B50B4CA514E614A8
:1008C0000BE029462046FFF79AFD00280AD1314661
:1008D0002046FFF794FD0028F3D000F007F8FFF75B
:1008E0002DFFF4E770BD00000008014070B500F076
:1008F000D1F8FFF719FEFFF7E1FC0A4C4FF4006551
:1009000029462046FFF77BFD0028F9D029462046DE
:10091000FFF775FD0028F9D1BDE870400248FFF7E8
:100920002DBF0000000801401C0100204FF0E02115
:10093000042804D0086920F00400086170470869A1
:1009400040F00400086170477047000010B50F4880
:10095000016841F00101016041680D4A11404160A8
:1009600001680C4A11400160016821F48021016096
:10097000416821F4FE0141604FF41F018160FFF7DF
:1009800078FD05494FF00060086010BD001002407E
:100990000000FFF8FFFFF6FE08ED00E010B50A4C7E
:1009A0000121204600F017F800280AD00121204636
:1009B00000F00EF80549D1F8940118B10020C1F8F3
:1009C000940110BD0120FAE700040040000023421A
:1009D000C9430182704702460020138A0B40928966
:1009E0000A40002B02D0002A00D001207047FEE709
:1009F00010B56FF00400FFF799FF09480949006836
:100A0000B0FBF1F00849C0B2087000EB4002C2EB45
:100A1000C0104FF6FF7202EAC000488010BD00000F
:100A20000000002000127A00180000200B494988BD
:100A300048434FF0E021486100238B61086940F092
:100A4000010008610869C20701D0C003FAD508692E
:100A500020F0010008618B61704700001800002041
:100A60000B49097848434FF0E021486100238B612E
:100A7000086940F0010008610869C20701D0C0039D
:100A8000FAD5086920F0010008618B617047000009
:100A90001800002010B50021064C0022002004EBB5
:100AA00001131A54401C1028FBDB491C1029F5DBEC
:100AB00010BD00001C000020FFF79AFFFFF7AAFC02
:100AC000FFF76EFEFFF7F8FEFCE700001FB5002100
:100AD000009101910291039103216B4608E000EB24
:100AE000D07222F00104001B43F821005010491E6F
:100AF0000028F4DC044800990160019941600299E2
:100B000081600399C1601FBD8C0121422C0B00083C
:100B1000000000201C00000028010008480B00080D
:100B20001C0000201C0900004401000800A24A0427
:100B3000000000000000000001020304060708098D
:080B40000000000000000000AD
:04000005080000ED02
:00000001FF
